:100000000C9418090C945F090C945F090C944A3500
:100010000C945F090C945F090C945F090C945F09C0
:100020000C945F090C945F090C9494310C94BF32CA
:100030000C9480170C945F090C945F090C945F0971
:100040000C945F090C945F090C945F090C945F0990
:100050000C945F090C94D31D0C945F090C945F09F8
:100060000C945F090C945F090C945F090C945F0970
:100070000C945F090C945F090C945F090C945F0960
:100080000C945F090C945F090C945F090C945F0950
:100090000C945F090C945F090C945F090C945F0940
:1000A0000C945F090C945F090C945F090631FF09F9
:1000B00074A1010975150026FF00952075088102BD
:1000C0000976150026FF00952075089102C00501EC
:1000D0000902A10185020901A100050919012908E8
:1000E00015002501950875018102050109300931C6
:1000F0001581257F95027508810609381581257FB0
:10010000950175088106050C0A38021581257F9531
:100110000175088106C0C005010980A10185031988
:10012000012AB700150126B700950175108100C09E
:10013000050C0901A101850419012AA00215012657
:10014000A002950175108100C005010906A10105F5
:100150000719E029E7150025019508750181029529
:1001600001750881010507190029FF150026FF0008
:100170009506750881000508190129059505750181
:100180009102950175039101C0000180FF1E2301BA
:1001900080FF1E010680FF80240680FF8007048008
:1001A000FF802A0480FF80190280FF803C0280FFCC
:1001B00080FF000000000001EA801E2301EA801E8B
:1001C0000106EA80FF2406EA80FF0704EA80FF2A8E
:1001D00004EA80FF1902EA80FF3C02EA80FFFF0088
:1001E000000000000100FF1E230100FF1E010600A9
:1001F000FFFF240600FFFF070400FFFF2A0400FFA3
:10020000FF190200FFFF3C0200FFFFFF000000009B
:100210006F6C65645F6F6E20636D64206661696CEE
:1002200065640A0000AF07087F0807003E5B4F5B6C
:100230003E003E6B4F6B3E001C3E7C3E1C00183C5B
:100240007E3C18001C577D571C001C5E7F5E1C0006
:1002500000183C180000FFE7C3E7FF00001824184F
:100260000000FFE7DBE7FF0030483A060E002629D2
:1002700079292600407F05050700407F05253F00BE
:100280005A3CE73C5A007F3E1C1C0800081C1C3EE0
:100290007F0014227F2214005F5F005F5F00060969
:1002A0007F017F00006689956A0060606060600081
:1002B00094A2FFA2940008047E04080010207E206F
:1002C000100008082A1C0800081C2A0808001E1034
:1002D000101010000C1E0C1E0C0030383E38300080
:1002E000060E3E0E060000000000000000005F0049
:1002F0000000000700070000147F147F1400242A68
:100300007F2A1200231308646200364956205000E9
:10031000000807030000001C224100000041221CCD
:1003200000002A1C7F1C2A0008083E0808000080E4
:100330007030000008080808080000006060000035
:100340002010080402003E5149453E0000427F4013
:1003500000007249494946002141494D33001814B3
:10036000127F10002745454539003C4A4949310074
:1003700041211109070036494949360046494929B2
:100380001E000000140000000040340000000008BF
:100390001422410014141414140000412214080003
:1003A0000201590906003E415D594E007C121112AE
:1003B0007C007F49494936003E41414122007F414E
:1003C00041413E007F49494941007F090909010037
:1003D0003E41415173007F0808087F0000417F4182
:1003E00000002040413F01007F08142241007F406F
:1003F000404040007F021C027F007F0408107F0005
:100400003E4141413E007F09090906003E4151211C
:100410005E007F0919294600264949493200030137
:100420007F0103003F4040403F001F2040201F004D
:100430003F4038403F00631408146300030478040D
:1004400003006159494D4300007F414141000204CE
:1004500008102000004141417F0004020102040015
:1004600040404040400000030708000020545478FA
:1004700040007F284444380038444444280038442D
:1004800044287F0038545454180000087E090200A4
:1004900018A4A49C78007F080404780000447D40E0
:1004A00000002040403D00007F1028440000004133
:1004B0007F4000007C04780478007C080404780005
:1004C000384444443800FC18242418001824241804
:1004D000FC007C080404080048545454240004041C
:1004E0003F4424003C4040207C001C2040201C0055
:1004F0003C4030403C004428102844004C909090F0
:100500007C004464544C4400000836410000000064
:1005100077000000004136080000020102040200DA
:100520003C2623263C00000000000000404040F034
:10053000F8F8FF38FFF8F83FF8F8FF38FFF8F8F060
:1005400040404000000000000080C0C0C0800000AB
:10055000C0C08000000080C0C000C0C0000080C0DB
:10056000C00000000000C0C0C0C0C000C0C000008B
:10057000000000000000000000000000000000007B
:10058000000000000000000000000000000000006B
:10059000000000000000000000000000000000005B
:1005A0000000000000C0F0F8FC3E1E060100000044
:1005B0007F4141417F007F4141417F000080C0E099
:1005C0007E5B4F5BFEC00000C000DCD7DEDEDED706
:1005D000DC00C0000000000000000000000000007F
:1005E000000000000000000000000000494949FF31
:1005F000FFFFFFE0DFBFBF00BFBFDFE0FFFFFFFF88
:1006000049494900000000001F3F6060E0BF1F0033
:100610007F7F071E381E077F7F007F7F0E1F3B7185
:100620006000000000007F7F0C0C0C007E7E007FCD
:100630007E0303007F7E03037E7E03037F7E000F25
:100640003E703C063C703E0F00327B49493F7E00C5
:100650007F7E0303001E3F69696F260000000000D3
:100660000000000000030F1F3F3C78706000000096
:100670007F4141417F007F4141417F00307B7F7856
:1006800030202030787F3B0003000F7F0F0F0F7F5B
:100690000F00030000000000000000000000000048
:1006A0000000000000000000000000000101010740
:1006B0000F0F7F0F7F0F0F7E0F0F7F0F7F0F0F0723
:1006C0000101010000000000000000000001010025
:1006D000000000000000000000000000000000001A
:1006E000000000000000000000000000000000000A
:1006F00000000000000000000000000000000000FA
:1007000000000000000000000000000000000000E9
:1007100000000000000000000000000000000000D9
:1007200000000000000000000000000000000000C9
:1007300000000000000000000000000000000000B9
:1007400000000000000000000000000000000000A9
:100750000000000000000000000000000000000099
:1007600000000000000009025B00030100A0FA097C
:1007700004000001030101000921110100012240D0
:10078000000705810308000A0904010001030000B5
:1007900000092111010001227B00070582032000CE
:1007A0000A090402000203000000092111010001EE
:1007B0002222000705830320000107050303200010
:1007C00001120110010000000832FC870201000143
:1007D0000200010C0353006F0066006C006500000E
:1007E000001A034A006F0073006500660041006450
:1007F0000061006D00630069006B000000040309E4
:10080000045B435D005B445D005B535D005B575DD3
:10081000005B525D00646973706C61795F7365742D
:10082000757032206661696C65640A0000DA0281C5
:10083000FFD9F1DB20A4A62EAF646973706C6179D7
:100840005F666C6970706564206661696C65640AD6
:100850000000A0C06F6C65645F696E697420636D91
:1008600064206E6F726D616C20726F746174696F59
:100870006E206661696C65640A0000A1C86F6C65D2
:10088000645F696E697420636D64207365742031E0
:10089000206661696C65640A0000AED580A81FD32C
:1008A00000408D1420007267626C696768745F6332
:1008B0006F6E6669672E7370656564203D202564E0
:1008C0000A007267626C696768745F636F6E66695D
:1008D000672E76616C203D2025640A007267626C89
:1008E000696768745F636F6E6669672E73617420F1
:1008F0003D2025640A007267626C696768745F63F3
:100900006F6E6669672E687565203D2025640A0054
:100910007267686C696768745F636F6E6669672E7B
:100920006D6F6465203D2025640A007267626C6902
:100930006768745F636F6E6669672E656E61626C6F
:1009400065203D2025640A007267626C69676874DF
:100950005F636F6E66696720454550524F4D3A0A96
:10096000007267626C696768745F696E697420728F
:1009700067626C696768745F636F6E6669672E6D26
:100980006F6465203D20302E2057726974652064A5
:10099000656661756C742076616C75657320746F23
:1009A00020454550524F4D2E0A007267626C6967B0
:1009B00068745F696E6974206565636F6E666967E8
:1009C000206973206E6F7420656E61626C65642EA1
:1009D0000A007267626C696768745F696E69742087
:1009E0007374617274210A007267626C696768745B
:1009F0005F696E69742063616C6C65642E0A00E344
:100A000001B601890100007267626C696768742031
:100A1000656E61626C65205B4E4F454550524F4D8F
:100A20005D3A207267626C696768745F636F6E66B7
:100A300069672E656E61626C65203D2025750A0030
:100A40000A0025303862003A200025303258000A6A
:100A5000722F632030313233343536370A007267F3
:100A6000626C6967687420616E696D6174696F6E2C
:100A7000207469636B207265706F727420746F20CC
:100A8000736C6176650A00783C1E556E646566007D
:100A900041646A0A004C6F77657200526169736540
:100AA00000426173650A004C41594552000A0A0030
:100AB000556E6465660057726B6D6E0047414D451B
:100AC000520051776572000044616E650A45766197
:100AD0006E73000A0A0080818283848586878889F4
:100AE0008A8B8C8D8E8F9091929394A0A1A2A3A4B7
:100AF000A5A6A7A8A9AAABACADAEAFB0B1B2B3B42E
:100B0000C0C1C2C3C4C5C6C7C8C9CACBCCCDCECF6D
:100B1000D0D1D2D3D4006F6C65645F72656E6465AA
:100B20007239302064617461206661696C65640AA1
:100B3000006F6C65645F72656E64657220646174D9
:100B400061206661696C65640A006F6C65645F7240
:100B5000656E646572206F666673657420636F6D81
:100B60006D616E64206661696C65640A006F6C6516
:100B7000645F6F666620636D64206661696C65649E
:100B80000A0000AE0A0025303258006B6579626FAA
:100B90006172645F7365745F6C65643A20005B73B7
:100BA0005D004B6579626F61726420737461727469
:100BB0002E0A000A002530325820006B6579626FDA
:100BC0006172645F7265706F72743A20004F6E6577
:100BD00073686F743A206163746976653A2025649E
:100BE0000A007267626C6967687420646973616285
:100BF0006C65205B454550524F4D5D3A20726762EF
:100C00006C696768745F636F6E6669672E656E6195
:100C1000626C65203D2025750A007267626C696709
:100C2000687420656E61626C65205B454550524F6B
:100C30004D5D3A207267626C696768745F636F6EBE
:100C40006669672E656E61626C65203D2025750AB8
:100C5000007267626C6967687420746F67676C659F
:100C6000205B454550524F4D5D3A207267626C697A
:100C70006768745F636F6E6669672E656E61626C2C
:100C800065203D2025750A0044454255473A2064B9
:100C9000697361626C65642E0A0044454255473AA7
:100CA00020656E61626C65642E0A00000501050214
:100CB00005030504050505000601060206030604F2
:100CC00006050600070107020703070407050700DA
:100CD00008010802080308040805080009010902C0
:100CE00009030904090509000001000200030004CA
:100CF00000050000010101020103010401050100DA
:100D000002010202020302040205020003010302BF
:100D100003030304030503000401040204030404A1
:100D20000405047267626C696768742074696D6594
:100D3000722064697361626C652E0A007267626C6E
:100D4000696768742074696D657220656E61626C94
:100D500065642E0A007267626C6967687420736547
:100D60007420687376205B4E4F454550524F4D5D61
:100D70003A2025752C25752C25750A007267626C42
:100D8000696768742073657420687376205B4545D5
:100D900050524F4D5D3A2025752C25752C25750A2E
:100DA000007267626C696768742064697361626C61
:100DB00065205B4E4F454550524F4D5D3A2072675E
:100DC000626C696768745F636F6E6669672E656ED3
:100DD00061626C65203D2025750A007267626C694E
:100DE000676874206D6F6465205B4E4F45455052B7
:100DF0004F4D5D3A2025750A007267626C6967681D
:100E000074206D6F6465205B454550524F4D5D3ACF
:100E10002025750A00000101010101010101010203
:100E2000020202020202020203030303030303039A
:100E30000404040404040405050505050606060665
:100E400006070707070708080808090909090A0A21
:100E50000A0B0B0B0C0C0C0D0D0D0E0E0E0F0F0FC5
:100E60001010111111121213131414151516161750
:100E700017181819191A1A1B1B1C1D1D1E1E1F20BE
:100E800020212222232424252626272829292A2B0B
:100E90002C2D2D2E2F303132323334353637383930
:100EA0003A3B3C3D3E3F404142434445464748492A
:100EB0004A4C4D4E4F50515354555658595A5B5DFC
:100EC0005E5F616264656668696B6C6D6F7072739A
:100ED0007577787A7B7D7E8082838587888A8C8E01
:100EE0008F91939596989A9C9EA0A2A3A5A7A9AB33
:100EF000ADAFB1B3B5B7BABCBEC0C2C4C6C9CBCD25
:100F0000CFD1D4D6D8DBDDDFE2E4E7E9EBEEF0F3D6
:100F1000F5F8FAFDFF290A002575002F0025750058
:100F20005D28002564002000256400200025640061
:100F300020002564007C0025303258006D6F7573E9
:100F4000656B6579205B62746E7C782079207620F1
:100F5000685D287265702F61636C293A205B0035EB
:100F6000001E001F00200021002200290014001A8A
:100F7000000800150017002B0004001600070009E8
:100F8000000A00E1001D001B00060019000500E337
:100F900000E200E000625D2C00A8002A0027002685
:100FA000002500240023002F00130012000C00185D
:100FB000001C00340033000F000E000D000B00E594
:100FC0000038003700360010001100E700E600E4AA
:100FD00000635D280000001E001F00200021002289
:100FE000002300350014001A000800150017002B1C
:100FF0000004001600070009000A0010001D001B75
:10100000000600190005002900E100E000625D2CE7
:1010100000A8002E002D0027002600250024002F08
:1010200000130012000C0018001C00340033000FE5
:10103000000E000D000B00E50038003700360010F0
:10104000001100E700E600E400635D2800000035C1
:10105000001E001F002000210022002900140007AC
:101060000015001A0005002B00040016000B0017E5
:10107000000A00E1001D001B00100006001900E33B
:1010800000E200E000625D2C00A8002A0027002694
:10109000002500240023002F00330013001800094E
:1010A000000D00340012000C00080011001C00E5C7
:1010B000003800370036000F000E00E700E600E4BD
:1010C00000635D2800000045003A003B003C003D05
:1010D000003E0035001E001F0020002100220001FC
:1010E000001E021F0220022102220201002E002DFA
:1010F000002E022F02300201000100010001000158
:10110000000100440043004200410040003F003025
:101110000027002600250024002300310227022694
:101120000225022402230201003100330233003081
:10113000002F000100010001000100010001000179
:101140000001000100010001000100010000005247
:10115000000000000000000100500051004F00009E
:1011600000000001007A007B007C007D000000018F
:1011700000010001000100010001004C0046006573
:10118000004B004A0049000000000000004E004DE6
:10119000004C000000000000000000000000000102
:1011A000000000000000000000000001000100013C
:1011B00000010001000100005C00000000605D61B2
:1011C0005D5F5D005C0000000000000000000000AA
:1011D000000000000000000000000000000000000F
:1011E00000000000000000010001000100010001FA
:1011F00000000000000000000000000000000000EF
:10120000000000000000000000000000000000A935
:1012100000A800AA00000000000000AB00AE00AC77
:1012200000000001000100010001000100000000B9
:1012300011241FBECFEFDAE0DEBFCDBF04B603FE40
:1012400027C08091B9059091BA05A091BB05B091D6
:10125000BC058730904BA740B04BD1F41092B90534
:101260001092BA051092BB051092BC0514BE84B74B
:10127000877F84BF0FB6F894A8958091600088613D
:1012800080936000109260000FBEE0E0F8E30995E3
:1012900011E0A0E0B1E0EAEBFEE602C005900D929D
:1012A000A639B107D9F725E0A6E9B1E001C01D9242
:1012B000A93BB207E1F70E94152A0C94FD360C9465
:1012C0000000FF93EF93E0919601F0919701309722
:1012D00009F00995EF91FF910895FC018591803007
:1012E00011F0EFDFFBCF0895FF27E0E230E247FF88
:1012F0000CC0419597FF09C0EDE26095709580950F
:101300009095611D711D811D911D27FF02C02195C2
:1013100030E350E2AA27660F771F881F991FAA1F84
:10132000A41710F0A41B63955A95A9F7AA3008F0EA
:10133000A95FA05DAF93F3956115710581059105D6
:1013400041F7ED3211F4EF93F395F21718F43F9350
:10135000F395FBCF8F91B5DFFA95E1F70895E99109
:10136000F9918591803021F0853219F0AADFF9CF0B
:10137000089520E0E89455915532C1F3503311F4AB
:10138000689455915A3348F4505390F3220F022E2B
:10139000220F220F200D250FF4CF0EF421958991F5
:1013A0009991533619F3533729F1533559F1BC014B
:1013B00088279927E8945C3621F48991999168945B
:1013C0005591543639F446EF7EF077FF0DC08FEF1C
:1013D0009FEF0AC055374AE039F0583540E121F017
:1013E000523642E009F00895FF93EF937DDFEF91CD
:1013F000FF91B7CFFF93EF93FC0181918030B9F358
:1014000060DFFBCFFF93EF9368DFF1CFDF93CF93E4
:10141000CDB7DEB72596A3DFCF91DF9108950F9367
:101420001F93462F572FBC01CB01AA27BB2700973C
:10143000A105B105E9F1AC01BD0180E1052F162F31
:10144000272F3327011511052105310519F0885F74
:10145000B901A8018A019B01F4E0369527951795FB
:101460000795FA95D1F7011511052105310519F0F8
:101470008C5FB901A8018A019B01E2E036952795AE
:1014800017950795EA95D1F7011511052105310545
:1014900019F08E5FB901A801769567955795479524
:1014A000452B462B472B09F08F5F1F910F91089515
:1014B00080E0C4CF829594E0899F900111242C7C18
:1014C000869586958373282B30E0C901880F991F74
:1014D0008A7A359527952575822B089590919B05DD
:1014E00092FF06C0282F28712830F9F4877F846086
:1014F00093FF06C0282F28712831F1F4877E84617C
:1015000020919C0520FF06C0382F38713830D9F45F
:10151000877F816021FF06C0282F28712831D1F4F0
:10152000877E816194FD877E0895282F2471243061
:10153000F9F68B7F8860DCCF282F2471243101F7E6
:101540008B7E8861DDCF382F3171313019F78E7F76
:101550008860E0CF282F2171213121F78E7E8861AC
:10156000E1CFCF93DF93972F70E026E0929F600D3D
:10157000711D1124FB013CE3839FE00DF11D11243B
:10158000EE0FFF1FE15AF04FC591D491CE01C03E3E
:10159000D10509F462C068F5C133D10509F4A9C0C9
:1015A00090F4C932D10509F49DC0CA32D10509F4BD
:1015B000A7C0C130D10509F463C02497C13AD10551
:1015C00008F057C05DC0C933D10509F43FC0C23827
:1015D000D105E1F1C533D10509F47DC0C83AD10583
:1015E00008F095C0C53AD10520F3CE0184979064E8
:1015F00047C0C43ED10509F451C060F4C23ED105D4
:10160000D9F1C33ED10509F43EC0C05ED109289787
:1016100080F536C0C63ED10509F44BC0C73ED105A2
:1016200009F44EC0C11543E5D40708F09AC0C115AE
:1016300022E5D20708F003C1CF3FD10511F008F031
:1016400074C0CD3ED10550F290651AC020919B0523
:101650002370B1F080EE90E013C020919B0520FD37
:1016600013C130919C0530FF0BC083EE90E024FF46
:1016700007C090E080E004C020919B0522FDF5CFDB
:10168000DF91CF91089520919B0522FD00C13091FB
:101690009C0530FDDFCF24FFF3CFEBCF20919C05DD
:1016A00021FFEECF80919B0584FDE3CF87EE90E094
:1016B000E7CF20919B0523FFE3CF24FDDACFF6CFC0
:1016C00020919B0523FDE6C030919C0531FFE3CFBF
:1016D00084EE90E0D5CF20919B0525FFD1CF89E204
:1016E00090E0CECF20919B0525FFCACF85E390E007
:1016F000C7CF20919B0526FFC3CF8AE290E0C0CFE1
:1017000020919B0526FFBCCF81E390E0B9CFCF3B72
:10171000D10508F07ACFC85AD0E0CC0FDD1FC959E7
:10172000DE4F888199819464ABCFC11531E5D30731
:1017300098F4C11540E5D40708F066C0C11520E251
:10174000D20708F49DCF90548115904108F091CFB5
:10175000CE019F70906A94CF9C2F8827816F906AEA
:101760008FCFC11547E5D40758F5C11526E5D20737
:1017700008F087C0C11535E5D307C8F4C11544E5A5
:10178000D40708F06DC09E012370332781E090E0FC
:1017900002C0880F991F2A95E2F7C695C69520E2E8
:1017A000C29FE00111248C2B9D2B9A6869CF0E9467
:1017B0006E0A90E0982F882788279F71906260CFEB
:1017C000C1153AE5D30780F4C11549E5D40708F0FF
:1017D0004CC098558F3F910511F008F04ACF9C2FCF
:1017E0008827806F906A4CCF90568115904208F000
:1017F00040CF8D2F8F710E946E0A90E0982F88271E
:1018000088279F718C2BDACF9E0164E0369527954F
:101810006A95E1F7237086958695837030E2839F01
:10182000C0011124922BC37021E030E002C0220FCE
:10183000331FCA95E2F7822B932B9C6821CFAE0110
:101840004370552721E030E002C0220F331F4A9534
:10185000E2F78695869540E2849FC0011124EBCF84
:101860009C2F8827846F906A0BCF8F700E946E0A1E
:1018700034E0D695C7953A95E1F7CF709C2F9069E3
:10188000FFCE99279066FCCE89E390E0F9CE82EEF8
:1018900090E0F6CE86EE90E0F3CEF894E82FE29555
:1018A000EF70F0E041A18F7021E030E0B90102C09B
:1018B000660F771F8A95E2F7CB01962F90959423B8
:1018C00091A392A1892B82A37894089580917E059B
:1018D00080FD14C081FD14C082FD16C080917D057D
:1018E000882381F0843180F422E3829FC001112497
:1018F00064E170E00E947836862F08958CE00895A8
:1019000089E1089585E0089582E3089580917E0538
:1019100080FD16C081FD16C082FD16C080917C0539
:101920008823A1F0883280F428E0829FC00111242E
:1019300068E270E00E947836862F672B39F00895B0
:1019400082E0089584E0089588E0089581E0089594
:10195000E3E1E80FE331E0F5F0E0E150F94C0C94FD
:101960008C360E94660C81958093790508950E94BB
:10197000660CFACF0E94660C8195809378050895D5
:101980000E94660CFACF0E94860C80937A05089517
:101990000E94860C8195F9CF0E94860C81958093D8
:1019A0007B0508950E94860CFACF815F990B21E098
:1019B00030E001C0220F8A95EAF780917705822BEB
:1019C00080937705089580917E05816080937E05E0
:1019D000089580917E058260F9CF80917E058460B4
:1019E000F5CF409178058D3E59F48091790587FFB8
:1019F0000DC01092790541110BC010927D0508C0F1
:101A00008E3E81F48091790518169CF3442381F071
:101A100080917A0590917B05892B09F05AC010922C
:101A20007C0508958F3E49F447FFF0CF109278056A
:101A3000809179058111ECCFE0CF803F19F4141625
:101A4000ACF3E4CF90917A05893F29F41916F4F6A6
:101A500010927A05DBCF8A3F19F497FFD7CFF8CFE2
:101A600090917B058B3F29F497FFD0CF10927B0597
:101A7000CDCF8C3F19F41916CCF3C8CF9FE0980F47
:101A8000983090F4815F990B21E030E0B90102C0F9
:101A9000660F771F8A95E2F7CB01809590917705C5
:101AA000892380937705B2CF8D3F31F480917E05F5
:101AB0008E7F80937E05AACF8E3F21F480917E0594
:101AC0008D7FF7CF8F3F09F0A1CF80917E058B7F6F
:101AD000F0CF08956F927F928F929F92AF92BF92B4
:101AE000CF92DF92EF92FF920F931F93CF93DF93EA
:101AF000B82EA62E8901E42FF0E0EB5EF14F6111C4
:101B000019C0E4918E2F2E2FD80111962C93119786
:101B1000EC9312968C93DF91CF911F910F91FF90D0
:101B2000EF90DF90CF90BF90AF909F908F907F907D
:101B30006F900895E62EF12C249186E0B89E600106
:101B40001124CFEFD0E0C601BE010E9464368B2D78
:101B500090E0880F991F35E5369FA001379F500D03
:101B60001124841B950B982F990F980FAE014E19D5
:101B70005F09249FD001259FB00D1124EB2FA99E52
:101B800050011124AB2CBB24AE014A195B09249FE0
:101B90005001259FB00C11248B2D3E01691A71084C
:101BA0006E9C40016F9C900C7E9C900C1124892CA3
:101BB0009924C819D9092C9FA0012D9F500D1124DB
:101BC00063307105D1F09CEFC91693E0D90670F42B
:101BD00061307105B1F062307105B9F0FFEFCF16D9
:101BE000D10408F091CF8B2FE52F8ECF6430710593
:101BF00079F066307105B9F387CFEB2D822F2B2F4B
:101C000083CFE22F2B2D8B2F7FCF852FE22FF7CF86
:101C1000822F252F79CF80916A05982F9E7F61F4BE
:101C20008170826080936A0580916D05893718F014
:101C300088E780936D0508958A30B0F381708860DD
:101C4000F1CF0895FA0181110994FB01FDCFE091D4
:101C50007005F0917105309721F00190F081E02D31
:101C6000099480E00895209183023091840228171E
:101C7000390771F09093840280938302E09170059C
:101C8000F0917105309721F00680F781E02D0994DD
:101C9000089520918102309182022817390771F04E
:101CA0009093820280938102E0917005F09171051A
:101CB000309721F00084F185E02D099408958091FA
:101CC0004A0290914902981301C008958F5F87706E
:101CD000FACFE92FEE0FE90FEE0FE80F8E2F877086
:101CE00041E001C0440F8A95EAF7E695E695E6954E
:101CF00085E0E89FF0011124E75FFD4F30E020E030
:101D000070E05191DF011197CB01022E02C0969530
:101D100087950A94E2F7817081958527842385272A
:101D20008C932F5F3F4F2530310559F70895E92FE8
:101D3000EE0FE90FEE0FE80F9E2F9770E695E695F0
:101D4000E69585E0E89FF0011124E75FFD4F50E044
:101D500040E080E0219130E0092E02C036952795C1
:101D60000A94E2F721703327042E01C0220F0A944F
:101D7000EAF7822B4F5F5F4F4530510559F70895C1
:101D8000BF92CF92DF92EF92FF920F931F93CF9368
:101D9000DF938C01C0903602D0903702E090380279
:101DA000F090390280919D0590919E05A0919F052C
:101DB000B091A005C82AD92AEA2AFB2ACFE1D0E0AF
:101DC000BC2ED701C6010C2E04C0B695A7959795D9
:101DD00087950A94D2F780FD0EC0219788F7B12C21
:101DE0008B2DDF91CF911F910F91FF90EF90DF909E
:101DF000CF90BF900895B8018C2F0E94B10A01972F
:101E000061F3EECFFF920F931F93CF93DF93FC010B
:101E1000828100811181C081F180882311F16623C4
:101E200001F1C8010E94C00ED82F682FC8010E947E
:101E3000690EEC2FF0E086E0F89EE00DF11D112414
:101E40008CE3D89FE00DF11D1124EE0FFF1FE15A26
:101E5000F04F85919491DF91CF911F910F91FF9059
:101E60000895C8010E94970ED82FE3CFCF93DF9338
:101E7000D82FC92F0E94C00E6D2F7C2FDF91CF91DC
:101E80000C94B10A0E94360F282F892F8F70392F9A
:101E900032953F70903C80F43A30B0F4343020F406
:101EA000323090F480E008953630E1F781E0283E4A
:101EB00088F0213FB9F70EC03C3011F03F3091F768
:101EC000869586958695089581E0203F39F018F42F
:101ED000283E40F70895243F29F7FCCF0895EAE90A
:101EE000F1E09191891303C0DF0111971C9291E0F9
:101EF000E03AF907B1F70895809135028111109207
:101F0000350208959C01FC0132968FEF90E04191DB
:101F1000461751F08F3F19F4411101C0892F9F5F7F
:101F20009630A9F78F3F09F40895280F311D87FDDA
:101F30003A95F90162830895CF93DF9300D000D0E2
:101F4000CDB7DEB78FB7F894209104023091050227
:101F5000409106025091070229833A834B835C83A8
:101F60008FBF69817A818B819C810F900F900F9038
:101F70000F90DF91CF9108950C949C0F9C014FB767
:101F8000F8948091040290910502A0910602B0910C
:101F900007024FBF821B930B08958091FF010895A4
:101FA000FC01CB012091B3013091B4012617370712
:101FB00090F0009729F42091E8002E772093E80014
:101FC00040E0009751F4411108C08091E80082FF81
:101FD00031C080E00895C901F3CF20917F0522230D
:101FE000A9F12530A9F12091E80023FD2DC0209111
:101FF000E80022FDEACF2091E80020FFE2CF3091F7
:10200000F3002091F200009719F02830310558F0C4
:1020100041E02830310509F040E02091E8002E77BA
:102020002093E800CECF41914093F10001972F5FBC
:102030003F4FE9CF80917F05882341F0853041F003
:102040008091E80083FFC1CF81E0089582E0089588
:1020500083E008958091AD0187FF13C08091E8006F
:1020600082FF06C08091E8008B778093E80004C06F
:1020700080917F058111F2CF089580917F0588239B
:10208000D9F38091E80080FFF8CF8091E8008E7747
:10209000ECCF2091E4003091E50095E6A901209174
:1020A000EC00822F817020FF06C08091E80080FF45
:1020B00006C080E008952091E80022FD1AC08091BA
:1020C0007F05882389F0853089F08091EB0085FDBC
:1020D0000FC02091E4003091E50042175307F9F258
:1020E0009150E1F684E0089582E0089583E0089538
:1020F00081E00895E8EDF0E080818E7F808310928A
:10210000E2001092DA001092E100A0EEB0E08C91B3
:1021100081608C9380818F77808319BCA7EDB0E0BC
:102120008C918E7F8C9380818F7E80831092AC0106
:102130000895EF92FF920F931F93CF937C018B0131
:102140000E944910C82F811117C08091E80085FDB9
:102150000BC08091E8008E778093E8000E944910C0
:10216000882399F3C82F08C0F70181917F018093DC
:10217000F1000150110949F78C2FCF911F910F9158
:10218000FF90EF900895982F9093E900242F762FD9
:1021900050E0891731F07091EC002091ED005091E2
:1021A000F00021FD06C09F5F973071F78093E90032
:1021B00008953091EB003E7F3093EB003091ED00BD
:1021C0003D7F3093ED003091EB0031603093EB00B8
:1021D0007093EC002093ED005093F0002091EE00FE
:1021E00027FDE1CF0895CF92DF92EF92FF920F93F8
:1021F0001F93CF93DF93C8EDD0E088818F7E8883D3
:10220000E7EDF0E080818160808384E082BF81E03F
:102210008093AC0188818E7F888302EE10E0F80104
:1022200010821092DA0081EEC82ED12CF6011082B5
:1022300088818F77888388818068888388818F7D73
:10224000888319BC10927F051092AB011092F401A3
:102250001092AA0190EEE92EF12CF70180818B7F7C
:10226000808388818160888342E060E080E00E9412
:10227000C310F60180818E7F8083F80180818160A8
:102280008083808188608083F70180818E7F808356
:10229000888180618883DF91CF911F910F91FF909A
:1022A000EF90DF90CF90089580918005811110C04C
:1022B0008091D80080618093D8008AE18A95F1F7F7
:1022C00000C08091D90080FF0AC081E08093800522
:1022D00081E090918005913009F080E0089582E0DE
:1022E000809380050E947A1010927F05F1CFCF93E2
:1022F000DF93D82FC92F81E08093E9008FEF909171
:10230000E800815095FD06C095ED9A95F1F7000023
:102310008111F5CF8091E80085FF16C050E040E0C4
:1023200068E070E08D2F9C2F0E9499108091E8004A
:102330008E778093E80088E0ED2FFC2FA7EFB1E0C7
:1023400001900D928A95E1F7DF91CF91089522E0F7
:102350002093E9002FEF3091E800215035FD06C0B1
:1023600035ED3A95F1F700002111F5CF2091E80005
:1023700025FF0BC050E040E066E070E00E9499103D
:102380008091E8008E778093E8000895CF93DF93E3
:1023900000D00F92CDB7DEB790917F05943019F53C
:1023A00089836A837B8382E08093E9008FEF909139
:1023B000E800815095FD06C095ED9A95F1F7000073
:1023C0008111F5CF8091E80085FF0DC050E040E01D
:1023D00063E070E0CE0101960E9499108091E800C0
:1023E0008E778093E8000F900F900F90DF91CF9140
:1023F0000895BC0183E00C94C611BC0184E00C94E8
:10240000C6119FB7F8941092F6019FBF90917F0577
:10241000943009F047C02091E9009091EC00979525
:10242000992797952F70922B23E02093E900209114
:10243000EB0020FF34C02091EE0027FF30C0209138
:10244000F501222321F02091E80025FF28C01092F9
:10245000F50126E03091E80035FF14C08093F100CB
:102460008091E80085FD27C08091E80080FFFCCFC7
:102470008091E8008E778093E8009F709093E90048
:1024800080E0089530917F05343049F43091EB00BD
:1024900035FD05C0215041F481E08093F5019F7026
:1024A0009093E9008FEF0895EFE9FFE03197F1F79E
:1024B00000C00000CFCF8FB7F89421E02093F60141
:1024C0008FBFDBCF10926705809168058460809391
:1024D000680580916F0580FF08C083E29DE09F93AF
:1024E0008F930E94060A0F900F900895CF93DF9369
:1024F000D82FC0919C05C2FB882780F98D17F9F071
:10250000D0FBC2F9C0939C0560919B0584E090E0EC
:102510000E94C9366C2F82E290E00E94C9368091F9
:102520006F0580FF0CC01F92DF938DEC9BE09F93A3
:102530008F930E94060A0F900F900F900F90DF91DB
:10254000CF910895EF92FF920F931F93CF93DF9354
:102550008091340290913D02892B90913102892B18
:102560008093980190913502992391F0892B809363
:10257000980120E08AE991E0FC0130810196311157
:102580002F5F31E0803A9307B9F721110E947C0F49
:10259000E0917005F09171053097C9F10280F381E7
:1025A000E02D88E991E0099580916F0582FF2FC0A9
:1025B00080FF04C08BEB9BE00E946D09C8E9D1E06D
:1025C00080EAE82E81E0F82E05EB1BE080916F0594
:1025D00080FF0BC088811F928F931F930F930E94DF
:1025E000060A0F900F900F900F902196EC16FD06A3
:1025F00069F780916F0580FF0AC083EB9BE0DF9154
:10260000CF911F910F91FF90EF900C946D09DF9186
:10261000CF911F910F91FF90EF900895882339F08B
:1026200090913402892B809334020C94A212089565
:10263000882341F08095909134028923809334025D
:102640000C94A21208950F931F93CF93DF938B01E5
:10265000D82FC92F0E940B0EA8016D2F7C2F88E068
:1026600090E0DF91CF911F910F910C94DB36EAE659
:10267000F5E083E0808311828FEF828388E7838394
:102680001482E6E6F5E082818360828363E070E095
:102690008FEF98E70C942313CF93DF9300D000D0F3
:1026A000CDB7DEB780916E05833018F48F5F8093CD
:1026B0006E0580916A0590916B05A0916C05B091B3
:1026C0006D0589839A83AB83BC83BC01CD010F90D8
:1026D0000F900F900F90DF91CF910C942313CF9315
:1026E000DF9300D000D0CDB7DEB780916E05882390
:1026F00019F0815080936E0580916A0590916B0569
:10270000A0916C05B0916D0589839A83AB83BC83DE
:10271000BC01CD010F900F900F900F90DF91CF91E2
:102720000C9423134F925F926F927F928F929F929D
:10273000AF92BF92CF92DF92EF92FF920F931F93CF
:10274000CF93DF9300D000D00F92CDB7DEB750907B
:10275000160190916A0590FF3DC080908C04909086
:102760008D048114910409F048C08091150143E063
:10277000849FC001112482579B4F539A2BB1277F0E
:102780003BB138605FB7F894BC01549E600D711D79
:1027900011248617970709F08BC05FBF8FE594E07F
:1027A0000197F1F700C000000F900F900F900F906D
:1027B0000F90DF91CF911F910F91FF90EF90DF90DD
:1027C000CF90BF90AF909F908F907F906F905F90D1
:1027D0004F900895809117012091180133E0839F55
:1027E000F0011124E257FB4F821708F0B6CF118297
:1027F000108212828F5F3396F7CF90FFB6CFB12C45
:10280000A12C66246394712C43E0442E80916905C9
:1028100093010A2C01C0220F0A94EAF7822309F4DB
:102820003BC0F401E590F490E114F10409F49DCF6C
:1028300045E050E0B701CE0101960E949236098131
:102840000F3F51F18A81800F9927991F8734910595
:1028500014F086E490E06C01CC0CDD1CC80ED91E8F
:10286000C60182579B4F6C01049D800111240257C1
:102870001B4F0C151D0520F095E0E90EF11CD8CF7B
:102880004D81493708F048E798016C818B810E949F
:102890006A0D0D5F1F4FEDCFE2E08E0E911CFFEF32
:1028A000AF1ABF0A38E0A316B10409F0AFCF5DCF6D
:1028B000FC014191CF01E8E03BB9000000C047FFB7
:1028C0002BB9440F000000C000C000C02BB900C0ED
:1028D000EA9591F75ECF80916A058E7F80936A05B5
:1028E00080916F0580FF0CC01F921F9281EA9DE0CE
:1028F0009F938F930E94060A0F900F900F900F9056
:102900000E946212809168058160809368052FEFB4
:1029100080E792E0215080409040E1F700C0000045
:102920000C94921390916A0590FF14C09091170136
:102930002091180133E0939FF0011124E257FB4FDF
:10294000921710F00C9492138183608342839F5FEF
:102950003396F6CF0895EF92FF920F931F93CF9384
:10296000DF9300D000D000D00F92CDB7DEB7182F84
:10297000F62E042FE22E80916A0580FF5FC0E82FBB
:10298000E695F0E0EE5AFE4F9081909366058E7FBB
:10299000823009F060C0493708F048E79E012F5F98
:1029A0003F4F6F2D812F0E946A0D4B8169818A8173
:1029B0000E94921480916B05811308C080916C0570
:1029C0008F1104C080916D05801729F080916805F2
:1029D00082608093680510936B05F0926C050093FC
:1029E0006D05EE20F1F180916A0590916B05A09143
:1029F0006C05B0916D058C839D83AE83BF83BC0154
:102A0000CD010E94231380916F0580FF17C0809134
:102A10006D051F928F9380916C051F928F9380910B
:102A20006B051F928F938CE79DE09F938F930E947D
:102A3000060A0FB6F894DEBF0FBECDBF27960FB6BD
:102A4000F894DEBF0FBECDBFDF91CF911F910F91E4
:102A5000FF90EF900895923009F0ACCF10916B0584
:102A6000A9CF80916F0580FFE9CF1F920F931F922E
:102A7000FF921F921F9385E59DE0D7CFEAE6F5E030
:102A8000818121E043816281865F0C94AB14EAE688
:102A9000F5E0818121E0438162818A500C94AB147E
:102AA000EAE6F5E0628121E1620F08F46FEF21E0D0
:102AB000438181810C94AB14EAE6F5E0628121E167
:102AC000621B08F460E021E0438181810C94AB1427
:102AD000EAE6F5E0438121E1420F08F44FEF21E0FF
:102AE000628181810C94AB14EAE6F5E0438121E137
:102AF000421B08F440E021E0628181810C94AB1418
:102B00000F931F93CF93DF9300D00F92CDB7DEB713
:102B10008C0180916A0580FF13C040916D05493793
:102B200008F048E79E012F5F3F4F60916C05F80168
:102B300084810E946A0D4B8169818A810E9492146E
:102B4000F80184818F5F84830F900F900F90DF9145
:102B5000CF911F910F9108956AEE7EEF90E080E093
:102B60000E94E73660E082E090E00E94C93660E0B3
:102B700083E090E00E94C93610929D0510929E0558
:102B800010929F051092A00560E084E090E00E9402
:102B9000C93660E082E290E00E94C93660E085E0DC
:102BA00090E00E94C93660E086E090E00E94C9365D
:102BB0006FEF87E090E00E94C93640E050E0BA0134
:102BC00088E090E00E94DB3660E08DE090E00E94BB
:102BD000C93640E050E0BA0188E190E00E94DB365F
:102BE00060E087E190E00E94C93640E050E0BA0121
:102BF0008CE190E00E94DB3670E060E080E290E0E3
:102C00000E94E73640E050E0BA0188E190E00E947F
:102C1000DB3640E050E0BA018FE090E00E94DB3606
:102C200040E050E0BA0183E190E00C94DB36CF93B2
:102C300084E090E00E94B536C82F82E290E00E94C6
:102C4000B536982F8C2FCF910895CF92DF92EF92C7
:102C5000FF920F931F93CF93DF936C017B0164E688
:102C600070E088E70E94A733EC018601EC0CFD1CA4
:102C700097FD0EC0F801849164E670E00E94033471
:102C8000EC01892B29F40F5F1F4FE016F10691F735
:102C90000E949034CE01DF91CF911F910F91FF9050
:102CA000EF90DF90CF900895CF93DF9300D000D0C6
:102CB000CDB7DEB78091E801882369F10E949C0FAF
:102CC00069837A838B839C83DC01CB01805A954195
:102CD000AF4FBF4F8093E1019093E201A093E301D6
:102CE000B093E4018091E501811115C062E070E0CC
:102CF00084E292E00E942516892B51F080E192E057
:102D00000F900F900F900F90DF91CF910C946D0961
:102D100081E08093E5010F900F900F900F90DF916D
:102D2000CF910895CF93DF93682F81E06A3019F037
:102D30006D3029F480E0DF91CF910C9413178091CE
:102D400086049091870426E0FC01A2EAB1E001909C
:102D50000D922A95E1F7603E08F45AC026E0FC0186
:102D600011922A95E9F7C0918604D091870446E034
:102D700050E0BE0182EA91E00E94A8369E012658EA
:102D80003240892B41F1C90145E0969587954A95D6
:102D9000E1F741E050E0BA0102C0660F771F8A9563
:102DA000E2F7CB016091DF017091E001862B972B58
:102DB000B9016B5F7F4FE5E076956795EA95E1F79E
:102DC00002C0440F551F6A95E2F7842B952B909310
:102DD000E0018093DF012A5F3F4F40918502642F1D
:102DE00070E0C9010E946436481B463010F4240F7D
:102DF000311D211572E0370710F030E020E02A572E
:102E00003D4F3093870420938604DF91CF9108953E
:102E1000F6E06F9FB00111246A5D7D4F46E050E0FF
:102E20000E949236A0CFCF93E82F20918604309154
:102E300087042658324040918502642F70E0C90112
:102E40000E946436481B842FEE2361F066E00E94E6
:102E50005836C82FC15010F4CF91089580E20E94D7
:102E60009216F8CFA901480F511D4115524018F094
:102E700080E030E020E0280F311D2A573D4F30938D
:102E8000870420938604E8CFCF93DF93EC01FE0103
:102E90008491811103C0DF91CF9108950E94921611
:102EA0002196F5CF0E94441781E00C94131780916E
:102EB00068050895109268050895CF93DF93EC019B
:102EC00085E0EAE6F5E0DE0101900D928A95E1F7F2
:102ED0008091660590916705A0916805B09169059C
:102EE0008D839E83AF83B887DF91CF910895E09162
:102EF0008B04F0E0E757FB4F2081FC01208308950D
:102F00001F921FB61F9211248F939F93AF93BF936D
:102F100080910802811113C08091040290910502F2
:102F2000A0910602B09107024196A11DB11D8093A8
:102F3000040290930502A0930602B0930702BF918A
:102F4000AF919F918F911F901FBE1F9018952FB723
:102F5000F8948091040290910502A0910602B0912C
:102F600007022FBF0895AF92BF92CF92DF92EF92E8
:102F7000FF920F931F93CF93DF9300D000D00F9257
:102F8000CDB7DEB787E5E82E81E0F82E91E9A92ECE
:102F900095E0B92E00E0CC24C394D12CD7018D91BB
:102FA0007D01F894E82FE295EF70F0E021A18F7099
:102FB000A60102C0440F551F8A95E2F7CA01922F5D
:102FC000982B91A392A18095892382A3789400C025
:102FD000E1E6F1E030E020E010E04191A42FA2957D
:102FE000AF70A05EB0E08C9190E04F7002C09595FC
:102FF00087954A95E2F780FD47C08C2D022E01C0CF
:10300000880F0A94EAF7182B2F5F3F4F26303105BF
:1030100021F7F701319780810E944D0C50EA5A95B3
:10302000F1F7D5018D915D01181781F1FD013197FF
:10303000108381E0082BBCE5EB16B1E0FB0609F03C
:10304000ADCF10919005002319F181E080938305A5
:103050000E94A71790938205809381058091810536
:10306000909182050E94BE0F0697B0F0A12FB0E0AC
:10307000AA57BA4F85E0E1E9F5E001900D928A95F3
:10308000E1F71092830508C080E0BDCF80E0D2CF89
:10309000809183058111E2CF0E945411182F609115
:1030A0009005882309F459C01A821982FE013396CB
:1030B00083E0DF011D928A95E9F7862F90E0BE013B
:1030C0006F5F7F4F8A579A4F0E943133811125C01D
:1030D000809185058F5F809385058630E0F1E091D2
:1030E0008405F0E0EA57FA4F85E0DF011D928A95EA
:1030F000E9F7011101C0012F802F0F900F900F9061
:103100000F900F90DF91CF911F910F91FF90EF9053
:10311000DF90CF90BF90AF90089510928505E09119
:103120008405F0E0BF016A577A4FDE0111969E01D7
:103130002A5F3F4F10E0FB014191BF019D9149176C
:1031400031F0AF0141505109FA019083182FA217B5
:10315000B30789F7CECF10E0CCCF70E06A577A4F33
:103160008091840590E08A579A4F0E946D33C1CFB9
:1031700080916F0583FF7EC08CE39FE00E946D0904
:10318000809177051F928F9387E39FE09F938F93A2
:103190000E94060A85E39FE00E946D0980917805F0
:1031A000282F082E000C330B3F938F9382E39FE070
:1031B0009F938F930E94060A80E39FE00E946D090F
:1031C00080917905282F082E000C330B3F938F93A5
:1031D0008DE29FE09F938F930E94060A8BE29FE00F
:1031E0000E946D0980917A05282F082E000C330B60
:1031F0003F938F9388E29FE09F938F930E94060AEC
:1032000086E29FE00E946D0980917B05282F082EA1
:10321000000C330B3F938F9383E29FE09F938F9338
:103220000E94060A80E29FE00E946D0980917D0560
:103230001F928F938DE19FE09F938F930E94060AC8
:103240008BE19FE00E946D0980917E051F928F9314
:1032500088E19FE09F938F930E94060A85E19FE09B
:103260000E946D098DB79EB74C960FB6F8949EBF1D
:103270000FBE8DBF0E94A717209178053091790568
:10328000232B21F0809374059093750520917A0586
:1032900030917B05232B21F0809372059093730569
:1032A000E0917005F0917105309749F082E08093CC
:1032B00076050480F581E02D86E795E00994089570
:1032C000CF93C82F882309F44EC08CEF8C0F813A1E
:1032D00090F4EAE9F1E080EA91E02191C217E9F186
:1032E0008E179F07D1F76C2F88E991E00E94820F1B
:1032F000CF910C94A21280E28C0F883068F4C770D2
:1033000021E030E001C0220FCA95EAF78091340233
:10331000822B80933402ECCF8BE58C0F833038F412
:103320002C2F2452330BC901CF910C94330EE8E5B6
:10333000EC0FE73150F4F0E0EE0FFF1FE959FE4FBC
:1033400080819181CF910C94490ECD3E60F08C2FFD
:103350000E94A80CCF910C94B8188C2F0E946F0F6C
:103360000E94A212C0CFCF910895882399F19CEFBB
:10337000980F913A20F40E946F0F0C94A21290E2E1
:10338000980F983088F4877021E030E0A90102C0DE
:10339000440F551F8A95E2F7CA0180959091340237
:1033A000892380933402E9CF9BE5980F933020F472
:1033B00090E080E00C94330E98E5980F973120F45C
:1033C00090E080E00C94490E8D3E20F00E94F10CBC
:1033D0000C94B81808951F93CF93DF93182FEB0127
:1033E0000E9460198FE99FE00197F1F700C000008B
:1033F0002197C1F7812FDF91CF911F910C94B519BF
:1034000081110BC0662329F06AE070E089EA0C9410
:10341000EB196AE070E08AEAFACF813051F4662352
:1034200021F06AE070E08BE4F2CF6AE070E08EE4B5
:10343000EECF0895FF920F931F93CF93DF93D09118
:1034400088040D2F10E007571B4FFC01C081F801C5
:103450008081C81BFC2E80E01F147CF09C2FC7FDD0
:1034600090E0C91BC11114C08823E9F0DF91CF910E
:103470001F910F91FF900C94BC0FFA94F80180817A
:103480008F5F808361E08D2F0E94001A81E0E4CF7E
:10349000CF5FF80180818150808360E08D2F0E9492
:1034A000001A81E0DFCFDF91CF911F910F91FF9044
:1034B000089590E080E00E94330E90E080E00E944A
:1034C000490E10923D02109231020E94A21286E033
:1034D000E6E7F5E0DF011D928A95E9F710927D0598
:1034E00010927C0510927E050C94B818109234024C
:1034F000EAE9F1E086E0DF011D928A95E9F70C9494
:10350000591A1F93CF93DF93CDB7DEB7AA970FB6A3
:10351000F894DEBF0FBECDBF8DEA91E0FC010196AD
:103520002091F100208321E0853B9207B9F780913B
:10353000AE01893009F456C0C8F4823009F4B1C034
:10354000833009F480C0813071F18091E80083FFFD
:103550007BC28091AD019091AE019A3008F074C2A7
:10356000E92FF0E0EE5EF84C0C948C368A3009F4CA
:1035700087C08B3051F78091AD01813231F7809156
:10358000B1019091B201892B01F78091E800877F0A
:103590008093E8000E942A108091AF01809314016B
:1035A0000E94761AD2CF8091AD01813A71F6809156
:1035B000E800877F8093E8008091B1019091B2018B
:1035C000892B61F468E087EF91E070E00E94D00FF2
:1035D0008091E8008B778093E800B7CF60E090E0BF
:1035E00080E0F3CF8091AD01813209F0AECF8091C0
:1035F000B1019091B201029708F0A7CF8091E80045
:10360000877F8093E8008091E80082FF17C0909147
:10361000F3008091F200029729F48091F1008B7FF2
:10362000813021F48091F1008093FF018091E800C6
:103630008B778093E8000E942A1087CF80917F05C6
:103640008111E1CF82CF8091AD01813A09F07DCF28
:103650008091B1019091B201892B09F076CF8091D0
:10366000E800877F8093E8008091E80080FFFCCF2E
:10367000809114018093F1008091E8008E77D9CF7A
:103680008091AD01813209F060CF8091E800877FA1
:103690008093E8000E942A108091B0018093A801D5
:1036A00054CF8091AD01813A09F04FCF8091E8006D
:1036B000877F8093E8008091E80080FFFCCF8091B5
:1036C000A801D8CF803899F0823809F0BDC1809127
:1036D000B1018F70873008F0B7C18093E900809105
:1036E000EB0085FB882780F91092E90006C08091E5
:1036F000AA019091F401911182609091E800977F66
:103700009093E8008093F1001092F1008091E8001E
:103710008E7796C1882309F484C1823009F094C160
:103720008091AF01811187C18091B1018F702FEF1E
:10373000280F263008F088C18093E9002091EB0023
:1037400020FF79C1933031F48091EB008062809347
:10375000EB0071C19091EB0090619093EB0021E040
:1037600030E001C0220F8A95EAF72093EA00109218
:10377000EA008091EB008860EACF811165C1109169
:10378000AF011F778091E3008078812B8093E30065
:103790008091E800877F8093E8000E942A10809142
:1037A000E80080FFFCCF8091E30080688093E30015
:1037B00082E0111183E080937F0546C180588230FA
:1037C00008F042C14091AF015091B0014C3D83E0FF
:1037D000580799F583E08A838AE289834FB7F89482
:1037E000DE01139620E03EE051E2E32FF0E050933B
:1037F0005700849120FF03C082958F703F5F8F70C8
:103800008A30C8F0895C90E08D939D932F5F2431BE
:1038100061F74FBF8091E800877F8093E8006AE2FC
:1038200070E0CE0101960E94D00F8091E8008B7766
:103830008093E80009C1805DE6CF8091B10190914D
:10384000B201252F33272330310509F44AC078F51A
:103850002130310509F479C08BE590E0E6E6F7E028
:103860002230310509F0F0C02091E800277F209335
:10387000E8002091B3013091B4018217930708F456
:103880009C0140E02115310509F064C0411162C07E
:103890008091E80082FDC9CF80917F05882329F2BD
:1038A000853019F28091E80083FFF2CFBECF21323C
:1038B000310509F43BC02232310509F0C5C083301F
:1038C000910508F0C1C0FC01EE0FFF1FE25DFE4F45
:1038D0000190F081E02D855D9E4FDC018C9190E0A0
:1038E00011C0CA019927413089F082309105B1F0A9
:1038F000892B09F0A9C0EDEFF7E0E4918E2F90E05D
:10390000EDEFF7E0009709F49FC0AECFE1EEF7E0EE
:10391000E4918E2F90E0E1EEF7E0F4CFE3EDF7E0F5
:10392000E4918E2F90E0E3EDF7E0ECCF833091054A
:1039300008F08AC0880F991FFC01EC5CFE4F0190D3
:10394000F081E02D89E090E08FCF82E190E0E1EC22
:10395000F7E08ACF80917F05882309F466CF853010
:1039600009F463CF8091E80083FD5FCF8091E80088
:1039700082FD8ECF8091E80080FF84CF9091F3008C
:103980008091F2002115310519F08830910550F031
:1039900041E0089709F040E08091E8008E7780933D
:1039A000E80070CF44914093F100319621503109E5
:1039B0000196E8CF803809F047C08091E800877F02
:1039C0008093E8008091AB018093F1009FCE81113C
:1039D0003BC01091AF011230B8F58091E800877FAD
:1039E0008093E8001093AB010E942A10112311F07C
:1039F00084E005C08091E30087FDFACF81E08093E9
:103A00007F0542E061EC81E00E94C31042E261EC7C
:103A100082E00E94C31042E261EC83E00E94C31086
:103A200013C08091AF01813079F481E0933009F0C7
:103A300080E08093F4011092E9008091E800877F94
:103A40008093E8000E942A108091E80083FF0AC05A
:103A50008091E800877F8093E8008091EB0080628E
:103A60008093EB00AA960FB6F894DEBF0FBECDBFD1
:103A7000DF91CF911F91089560939D0570939E05EE
:103A800080939F059093A0050C94591ACF93DF93D0
:103A900000D000D0CDB7DEB721E030E002C0220F69
:103AA000331F8A95E2F73A832983698183E090E0A6
:103AB0000E94C936A981BA81CD01B0E0A0E0898316
:103AC0009A83AB83BC83BC01CD010F900F900F9004
:103AD0000F90DF91CF910C943C1DFF920F931F9399
:103AE000CF93DF93C62FD42F122F8823A9F0609392
:103AF00032020E94A7179093A1018093A001C77082
:103B000081E001C0880FCA95EAF7DF91CF911F913C
:103B10000F91FF900C940E1380913202681336C0FF
:103B20008091A0019091A1010E94BE0F883C910557
:103B300068F500E20D0FCD17A9F0C770FF24F394CC
:103B40008F2D01C0880FCA95EAF70E94181308301C
:103B500048F48D2F877001C0FF0C8A95EAF78F2DEE
:103B60000E940E136AE070E0812F0E94EB1908306A
:103B7000A0F4D77081E001C0880FDA95EAF7DF91F1
:103B8000CF911F910F91FF900C941813C77081E093
:103B900001C0880FCA95EAF7F2CFDF91CF911F914C
:103BA0000F91FF90089578941F921FB61F921124D1
:103BB0008F939F93AF93BF938091040290910502DE
:103BC000A0910602B09107020196A11DB11D80933C
:103BD000040290930502A0930602B0930702BF91DE
:103BE000AF919F918F911F901FBE1F901895CF92FC
:103BF000DF92EF92FF92CF93DF9300D000D0CDB74A
:103C0000DEB76B017C010E94541181110EC00E942D
:103C10009C0FC61AD70AE80AF90AC0920002D0928D
:103C20000102E0920202F09203020F900F900F90B7
:103C30000F90DF91CF91FF90EF90DF90CF9008959C
:103C4000CF93DF9300D000D0CDB7DEB70E945411E0
:103C5000882341F00F900F900F900F90DF91CF913C
:103C60000C949C0F0E949C0F69837A838B839C83A6
:103C70008091000290910102A0910202B091030292
:103C800029813A814B815C81280F391F4A1F5B1FB4
:103C9000CA01B9010F900F900F900F90DF91CF9153
:103CA00008950E94541181110C94A7170E94201EA0
:103CB000CB01089560916A05669570E041E050E09F
:103CC0008AE191E00E949B36892B19F481E0809370
:103CD00067050E94511E9093610580936005809155
:103CE000680584608093680580916F0580FF08C037
:103CF0008CE39DE09F938F930E94060A0F900F9094
:103D00000895CF93DF9300D000D0CDB7DEB7909168
:103D10006A0590FF6AC0882309F457C0853008F00F
:103D200056C08F7790916A059170282F220F922BA1
:103D300090936A0590916805916090936805662359
:103D400009F447C080916A0590916B05A0916C05BC
:103D5000B0916D0589839A83AB83BC83BC01CD018F
:103D60000E94231380916F0580FF0FC080916A0528
:103D700086951F928F9389EF9DE09F938F930E946A
:103D8000060A0F900F900F900F9060916A0566954C
:103D900070E041E050E08AE191E00E949B36892B7F
:103DA00009F10E94621281E08093630520E0409156
:103DB0006D0560916C0580916B050F900F900F90D1
:103DC0000F90DF91CF910C94AB1481E0ABCF84E0E6
:103DD000A9CF90916F0590FFD8CF1F928F938BED55
:103DE0009DE0CBCF0E945A1EDECF0F900F900F9018
:103DF0000F90DF91CF91089580916A0586958F5F2E
:103E0000853008F081E061E00C94811E90916A0594
:103E100096958FEF890F913009F484E061E00C945E
:103E2000811E21E030E0A90102C0440F551F8A9590
:103E3000E2F7CA0120916905662391F0242B2093B3
:103E400069058091680580618093680580916705A8
:103E5000811109C080916A0560E086950C94811EED
:103E600080952823ECCF0895CF92DF92EF92FF92B6
:103E7000CF936B017C01C114D104E104F10421F062
:103E8000C62FC17060E091F080919D0590919E05D4
:103E9000A0919F05B091A005C1E061E070E000979E
:103EA000A105B10519F08170682FC1E0617080E053
:103EB0000E94111FCC2309F45EC080919D05909152
:103EC0009E05A0919F05B091A0050097A105B105A1
:103ED00009F451C052E0B695A795979587955A95E4
:103EE000D1F78170682F617087E00E94111F60E038
:103EF000C114D104E104F10459F0D701C60143E033
:103F0000B695A795979587954A95D1F7682F6170D3
:103F100081E00E94111F60E0C114D104E104F104AA
:103F200059F0D701C60134E0B695A79597958795C6
:103F30003A95D1F7682F617082E00E94111F60E00E
:103F4000C114D104E104F10459F0D701C60125E000
:103F5000B695A795979587952A95D1F7682F6170A3
:103F600083E00E94111FC701B601CF91FF90EF902F
:103F7000DF90CF90089560E0B6CF0E94341F609329
:103F800036027093370280933802909339020C9472
:103F9000591A0F931F93CF93DF9300D000D0CDB762
:103FA000DEB741E050E060E070E004C0440F551F10
:103FB000661F771F8A95D2F780913602909137025B
:103FC000A0913802B09139028A019B01082B192B6C
:103FD0002A2B3B2B09831A832B833C83C901B8010D
:103FE0000F900F900F900F90DF91CF911F910F9135
:103FF0000C94BD1F0F931F93CF93DF9300D000D07D
:10400000CDB7DEB741E050E060E070E004C0440F9F
:10401000551F661F771F8A95D2F74095509560957A
:1040200070958091360290913702A0913802B0913C
:1040300039028A019B01082319232A233B23098380
:104040001A832B833C83C901B8010F900F900F9006
:104050000F90DF91CF911F910F910C94BD1F909104
:104060003B028095892380933B02282F277039F4E7
:10407000282F082E000C330B9217130621F4909171
:104080009C0592FF07C08595859585950E94FA1F2E
:1040900010923B020895CF93DF9300D000D0CDB7AC
:1040A000DEB78091360290913702A0913802B0912C
:1040B0003902AC01BD0148715527662777279C015D
:1040C000483151056105710591F4AD0120622983E4
:1040D0003A834B835C8369817A818B819C810F90C9
:1040E0000F900F900F90DF91CF910C94BD1FAD01F9
:1040F0002F7DEDCF80916A0580FF07C0869582589D
:104100008F77823010F40C94FC1E61E082E00C94F6
:10411000811E7F928F929F92AF92BF92CF92DF9239
:10412000EF92FF920F931F93CF93DF9300D000D0B5
:1041300000D0CDB7DEB77C01DC019C9111968C914B
:10414000119713962D913C91232B21F089238F3FBA
:1041500009F0F8C526960FB6F894DEBF0FBECDBFA6
:10416000DF91CF911F910F91FF90EF90DF90CF9053
:10417000BF90AF909F908F907F90089589809A8094
:1041800026EF82162CE5920609F45FC027E245EE81
:1041900066EE37EF83163CE5930609F453C045EF0E
:1041A00084164CE5940609F012C627E245EE64EE4B
:1041B00049C0882319F080E00E94461D80913B028F
:1041C000877041F2D70112968C91882319F282E010
:1041D00026960FB6F894DEBF0FBECDBFDF91CF910C
:1041E0001F910F91FF90EF90DF90CF90BF90AF9015
:1041F0009F908F907F900C942F208823F9F281E07C
:10420000DBCF8823D9F282E0D7CF882331F083E057
:104210000E94C91F0E944B20D1CF83E00E94FA1F49
:10422000F9CF882311F084E0F3CF84E0F7CF85E065
:104230000E94FA1FC3CF27E245EE65EE03C026E2D7
:1042400041EE60EE0E946D1DB9CF26E241EE62EEB6
:10425000F9CF29813A812B5F3C452930310508F49B
:10426000C9C5A980BA8026E1A2162CE5B20609F0DC
:10427000C2C190913402882309F4BCC0892F8A7A84
:1042800091E009F490E09093330269E2811165E3D3
:1042900088E991E00E94820F0E94A2128FCFE981EB
:1042A000FA81E350FC4580919B058160E331F10583
:1042B000C8F4E45EF84C0C948C3689819A818B5F4B
:1042C0009C45099708F0AAC5E981FA81EC5FFC4595
:1042D000E830F10590F4E15DF84C0C948C36809157
:1042E0009B05826080939B0599C580919B058460A6
:1042F000F9CF80919B058860F5CF80919C05816006
:1043000080939C058BC580919C058260F9CF80913C
:104310009B058061E7CF80919B058062E3CF809110
:104320009B058064DFCF0E94761A80919B05806890
:10433000D9CF80919B058C60D5CF80919C058360FF
:10434000DFCF80919B058E7FCDCF80919B058D7FA8
:10435000C9CF80919B058B7FC5CF80919B05877FBF
:10436000C1CF80919C058E7FCBCF80919C058D7FA6
:10437000C7CF80919B058F7EB5CF80919B058F7DA8
:10438000B1CF80919B058F7BADCF0E94761A809133
:104390009B058F77A7CF80919B05837FA3CF8091CB
:1043A0009C058C7FADCF80919B0582FB992790F96E
:1043B00021E0922790FB82F990FB83F993CF8091C3
:1043C0009C05982F909591708E7F892B90FB81F999
:1043D00097CF0E94761A90919B05892F97FB87F9BA
:1043E000805880CF61E08EE090E00E94C93616C50B
:1043F00060E0F9CF80913302811104C089E20E940C
:104400006F0F4ACF85E3FBCF89809A802EE5821615
:104410002DE5920609F4D2CEF70182810081118147
:10442000882309F44DC1C8010E94C00E8983682FFA
:10443000C8010E94690EB80189810E94B10A8D836A
:10444000192FD7011296BC91BE83F701A580A294C3
:104450005FE0A52280913B028770C9F07B2EBB23D1
:10446000B9F0892F807F803449F09D81905E98302B
:1044700070F0803619F4FD81F63F49F082E00E9429
:104480002F2080913B028770772473948111712CC7
:10449000812F82958F70C82ED12C8C3008F04FC19F
:1044A000F601E95CF84C0C948C3680916F0580FF26
:1044B00010C080916A05809581701F928F9381E56D
:1044C0009CE09F938F930E94060A0F900F900F908D
:1044D0000F9080916A0580FF39C08E7F80936A05B6
:1044E00080916A0590916B05A0916C05B0916D0566
:1044F00089839A83AB83BC83BC01CD010E942313C3
:1045000080916F0580FF0FC080916A0581701F92B6
:104510008F9382EE9BE09F938F930E94060A0F90E9
:104520000F900F900F900E94621280916805816039
:10453000809368059FEFA0E7B2E09150A040B040A3
:10454000E1F700C000000E94921338CE8160809392
:104550006A0580916F0580FF0DC01F9281E08F93E7
:104560008AE19CE09F938F930E94060A0F900F9020
:104570000F900F9080916A0561E086950E94811EE0
:104580001DCE46E05FE16CEF7EE10E94220E16CE6A
:104590004CEF5EE166E07FE1F8CF47E455E16EE382
:1045A00075E1F3CF4EE355E167E475E1EECF4CE5FD
:1045B00055E160E575E1E9CF40E555E16CE575E170
:1045C000E4CF44E755E168E675E1DFCF48E655E121
:1045D00064E775E1DACF4FE653E16CE473E1D5CFE0
:1045E0004CE453E16FE673E1D0CF61E081E0C6CFE8
:1045F0000E947A20E3CD89809A802BE582162DE5F2
:10460000920609F459C068F541E084164CE5940619
:1046100009F43DC05FED85165CE5950609F449C0D7
:1046200081148CE5980609F0F7CE0E94761A4FEFB8
:1046300054E38CE0415050408040E1F700C000005E
:1046400087E797E7909301088093000888E19AE054
:104650000FB6F894A895809360000FBE9093600009
:10466000FFCF89809A802CE582162DE5920631F1E4
:104670003DE58316930609F0CFCE80919C0582FB21
:10468000882780F991E089270E947612C5CE909103
:104690006F05892F8E7F90FF816080936F0580FF6B
:1046A00005C08AE99CE00E946D0988CD88E89CE0FD
:1046B000FACF0E94AC1582CD81E0E6CF80E0E4CF56
:1046C000C8010E94970E8983B6CE212F2F70B22E7B
:1046D000812F807F19F0B29440EFB4228E80882021
:1046E000D1F0BB2071F08D81805E883018F09D8004
:1046F00091100BC0809134028B29809334020E9468
:10470000A2128D810E9460191AC080913D028B29EE
:1047100080933D02F4CF8D810E94B519BB2079F0C2
:10472000B0948D81805E883018F0AD80A11050C0AB
:10473000809134028B21809334020E94A21228E0DF
:10474000C21AD10834E0C316D10410F40E94270E17
:104750008E80882071F0107F103619F42D81263F4D
:1047600041F080913A02823009F0E4C283E0809304
:104770003A027720B1F080913B0280FD12C0D70150
:1047800012961C928595859585950E94C91FC70133
:104790000E94892080913B028595859585950E9490
:1047A000FA1F60E0C70126960FB6F894DEBF0FBE71
:1047B000CDBFDF91CF911F910F91FF90EF90DF90D0
:1047C000CF90BF90AF909F908F907F900C94020FEE
:1047D00080913D028B2180933D02AFCF012F0F705E
:1047E000812F807F803211F00295007FBD80BB2039
:1047F00099F02B2D2130C1F18E80882009F444C01E
:10480000AA20D1F1D70115968C91159780FF79CF09
:104810008F7015968C9330C08E808820B9F090915F
:104820003502802F892BA11003C00E940E1387CF61
:1048300099249394A910F9CF20919C0522FD7FCF54
:10484000891709F47CCF8093350279CFA11006C077
:104850000E947C0F802F0E94181371CFBB24B39449
:10486000AB1409F46CCFF4CF8E80882039F035E09A
:10487000932E9A1408F463CF802FD7CF24E0B22E62
:10488000BA1408F45CCFE6CFAA2021F3BD81B93376
:1048900009F0D0C1EFEFF7EE23E0E150F040204007
:1048A000E1F700C000008D810E94B51948CF812F2B
:1048B00086958695837071F0813009F040CF9E8097
:1048C0008D81912F9370911002C090E080E00E9442
:1048D000490E35CF8E808D81912F9370811002C04B
:1048E00090E080E00E94330E2ACFAE808D81AA2016
:1048F00029F00E94A80C0E94B81821CF0E94F10C48
:10490000FACF812F837009F07CC0BE80B11017CF21
:104910002D81229526952770220F220F4D814F70F1
:1049200050E070E060E0022E04C0440F551F661F87
:10493000771F0A94D2F78D8080E090E0DC0184FE3E
:104940000FC08FE090E0A0E0B0E004C0880F991F96
:10495000AA1FBB1F2A95D2F780959095A095B09578
:10496000212F269526952370223059F1233009F402
:1049700041C080909D0590909E05A0909F05B090AD
:10498000A005213099F0842B952BA62BB72B9C01E9
:10499000AD01282139214A215B2129833A834B83A8
:1049A0005C83CA01B9010E943C1DC9CE842A952AA4
:1049B000A62AB72AA5019401282B392B4A2B5B2B59
:1049C000ECCF842B952BA62BB72B40919D055091B6
:1049D0009E0560919F057091A0054C015D018426A4
:1049E0009526A626B72689829A82AB82BC82C5010B
:1049F000B401D9CF4A015B01882A992AAA2ABB2A85
:104A0000F2CF9E80992009F44FC010FF98CE2D81DF
:104A1000229526952770220F220F4D814F7050E06E
:104A200070E060E0022E04C0440F551F661F771F20
:104A30000A94D2F7AD8080E090E0DC01A4FE0FC0C4
:104A40008FE090E0A0E0B0E004C0880F991FAA1F9B
:104A5000BB1F2A95D2F780959095A095B095212FF0
:104A6000269526952370223069F12330F1F180904C
:104A7000360290903702A0903802B090390221306F
:104A8000B1F0842B952BA62BB72B9C01AD012821CF
:104A900039214A215B2129833A834B835C83CA01F4
:104AA000B9010E94BD1F4BCE11FF49CEB0CF842A61
:104AB000952AA62AB72AA5019401282B392B4A2B1F
:104AC0005B2BE9CF842B952BA62BB72B409136027D
:104AD0005091370260913802709139024C015D01AA
:104AE00084269526A626B72606C04A015B01882A99
:104AF000992AAA2ABB2A89829A82AB82BC82C501E2
:104B0000B401CFCF212F2F70B22E8E80882029F0B4
:104B1000822F0E94C91F8D8188CE8D810E9418131B
:104B20008B2D0E94FA1F0BCE2D81223F09F44DC020
:104B300070F4203F49F1213F09F43EC08E80882067
:104B400009F46BC0A110DDCD812F8F713BC03D8179
:104B5000333F09F440C0343F89F79E80992009F41F
:104B600051C0212F2F71B22E822F0E94C91F809118
:104B70009C0582FD07C038E0B39EC001112483600C
:104B800080933B028B2D1EC08E8085E0982E88205E
:104B900011F094E0992E9A1408F4D1CD212F2F71A1
:104BA00081E090E0A0E0B0E004C0880F991FAA1F48
:104BB000BB1F2A95D2F78ACF812F8F71AE80AA2092
:104BC00009F4AFCF0E94C91FBACD812F8F71BE806B
:104BD000BB20C1F3A6CF8E8060E070E0CB018820BF
:104BE00009F45FCF812F8F7141E050E060E070E009
:104BF0004A015B0104C0880C991CAA1CBB1C8A9545
:104C0000D2F779CF81E00E942F2041E04A1508F0C9
:104C100096CD82E00E942F2092CDAA2081F02D8196
:104C2000293341F43FEF47EE53E0315040405040CC
:104C3000E1F737CE8FE39CE90197F1F732CE812F70
:104C40008F716FCFED81E05FE73008F046C0F0E094
:104C5000ED5BF84C0C948C368E80882009F46FCD77
:104C60008091480291E089278093480268CD9E8018
:104C70009092480264CD81E0AE808A25F5CFBE8057
:104C8000B1105DCD81E0F0CF8E80811058CD1092B3
:104C9000480255CD9E80992021F082E080933A020F
:104CA000F1CF80913A02823021F481E080933A0280
:104CB00046CD833009F043CD10923A02E8CFBE8052
:104CC000BB2039F080913C02882351F210923C02C3
:104CD00036CD24E02A1520F632CD80913C02AA2060
:104CE000E1F0882341F08091480291E08927809388
:104CF000480210923C028E80811003CD8FE39CE924
:104D00000197F1F700C000008D810E94B51986E07F
:104D1000D7011D928A95E9F712CD882309F40FCDAA
:104D20008E8081100CCD8091480291E0892780937C
:104D30004802CCCF813009F01CCD10923A0210927B
:104D4000480217CD61E0C7010E94020F89839A8350
:104D5000F701828189809A8022E682162DE59206EB
:104D600009F453CA08F06BC040E684164DE594067A
:104D700009F443CA51E685165DE5950609F441CA72
:104D80009FE589169DE5990609F413CA89809A80E2
:104D900024EF82162CE5920609F451CA08F0EEC9F8
:104DA00049ED84164CE5940609F445CA28E241E031
:104DB0005AED85165CE5950609F43FCA26E241EEF8
:104DC00061EE98ED89169CE5990609F43BCA8823A3
:104DD00009F44AC01092320289809A8026E1821634
:104DE0002CE5920608F035CA32E083163CE59306BE
:104DF00008F401CC0E94171690939C0580939B05A4
:104E000089809A8026E182162CE5920608F055CA20
:104E100032E083163CE5930608F041CA60919B0599
:104E200080909C05898284E090E00E94C936698167
:104E300082E290E00E94C9360E94761ABFC989803A
:104E40009A8023E682162DE5920609F4EAC934E633
:104E500083163DE5930609F099CF882309F4E7C945
:104E600085E00E94C91FAAC989809A8026E182161E
:104E70002CE5920609F4FDC9809134028272898082
:104E80009A8027ED82162CE5920608F0BDCA33EC15
:104E900083163CE5930608F4BFCAF401E45CFC45C4
:104EA000E331F10508F001CBE65BF84C0C948C364D
:104EB0001F93CF93DF9380918002807FA9F480912C
:104EC0007D02882389F080914A02C0914902709145
:104ED0007B0260917C02A0917E02B0917F02D62F6E
:104EE000D72316E0C81304C0DF91CF911F91089516
:104EF00090E0109711F0DF3F19F401968770F2CF20
:104F0000189F9001199F300D1124F901E55BFD4FA9
:104F100041816413F2CF40814713EFCF42814111A9
:104F2000ECCF438154814A1B5B0B483C510528F769
:104F3000809180028F70806180938002F901E05B34
:104F4000FD4F80818F70806180838BE792E00E94AB
:104F50008920DF91CF911F910C945F0EAF92BF9289
:104F6000CF92DF92EF92FF920F931F93CF93DF9335
:104F7000CDB7DEB72B970FB6F894DEBF0FBECDBF0F
:104F80008C0185E0F801DE01179601900D928A955B
:104F9000E1F7F801E28030812181C380D4808BE782
:104FA000A82E82E0B82E90917B0240917C02609105
:104FB0007E0270917F026115710529F0892F84238B
:104FC0008F3F09F01AC1EE2009F425C18F81988521
:104FD0000E94420FF82E882309F41DC186E0F801D3
:104FE000ABE7B2E001900D928A95E1F780917B02E8
:104FF00090917C020E94360F92959F70963051F4EA
:10500000863F41F08091480291E0892780934802D1
:1050100090933C020E9458271DC080918002582F17
:10502000507F683C710508F0A1C05111AEC0FE2C44
:10503000241322C0931320C0E1101EC08F70806122
:10504000809380028BE792E00E9489208091800209
:10505000F80185838F2D2B960FB6F894DEBF0FBE17
:10506000CDBFDF91CF911F910F91FF90EF90DF9017
:10507000CF90BF90AF900895CD2829F0822F832341
:105080008F3F09F07FC080E0F82FF170DF2EE091B4
:105090004A024091490256E080FD1CC0EE20D1F248
:1050A00080918002816080938002F12CD3CF8E2F7B
:1050B00090E05E9FF0011124E55BFD4F61812613B6
:1050C00006C06081361303C062816E11E7CF01967E
:1050D000E82FE770E413EBCF8F8198850E94360F9D
:1050E000292F22952F70903260F0225F2F7022308E
:1050F00078F49F7051F0F8019581907F31F4D12CB4
:105100000AC09F7011F08823D1F3805E8830B8F315
:10511000C8010E948920FD2C9DCF8F8198850E9417
:10512000420F882309F477C0EE2009F474C08091FF
:105130008002803270F020917B0230917C023A83B1
:1051400029831B82DD82CC828E83CE0101960E9450
:10515000892086E0F801ABE7B2E001900D928A95D4
:10516000E1F70E945827FF24F39474CF511121C016
:105170008BE792E00E94892086E0F50111928A95E2
:10518000E9F793CF81E08E257FCF2413C6CF931309
:10519000C4CFE110C2CFF8018583C8010E948920E5
:1051A00086E0F801ABE7B2E001900D928A95E1F755
:1051B00051CF2413B2CF9313B0CFE110AECFF8018B
:1051C0008583C8010E94892086E0F50111928A95A5
:1051D000E9F740CF241302C0931711F38F8198850C
:1051E0000E94420F8111B5CF80918002816080932F
:1051F0008002C8010E9489202DCFF0907D02F60127
:10520000E61BF70BBF01F11008CF683C7105E0F613
:10521000FE2CE110DFCFC8010E948920A4CFFF92AD
:105220000F931F93CF93DF93CDB7DEB767970FB67A
:10523000F894DEBF0FBECDBFE42F4B8B5C8BF62EF8
:105240006D8B7E8B8F8B962F0E891F89611110922B
:105250003D020115110501F12E2F25232F3F09F0E5
:1052600099C05FEFEFEF18C090914802992309F4BD
:105270003BC08E2F90E066E0569F800D911D11245B
:10528000880F991FFC01E455F34F5491FC01E5553B
:10529000F34FE491422B4C931A8AED875E87FF8689
:1052A000198B088B86E0FE013D96DE011796019072
:1052B0000D928A95E1F7CE0107960E94AE278823CA
:1052C000B9F016E080914A029091490289134FC0CB
:1052D00067960FB6F894DEBF0FBECDBFDF91CF91BA
:1052E0001F910F91FF900895209524232C93D4CFE4
:1052F00086E0FE013796DE01119601900D928A95A7
:10530000E1F79F8188852091490240914A026A8590
:105310007B85672BB1F289238F3F99F230E0C90179
:105320000196877099274817190671F40E94761A1A
:105330001092490210924A0286E0EBE7F2E0DF01A8
:105340001D928A95E9F7BDCF96E0929FD001939F79
:10535000B00D1124A55BBD4FFE01319601900D9259
:105360009A95E1F7809349020E945F0EAACF819F30
:10537000C0011124855B9D4F0E94AE27882309F44C
:10538000A7CF80914A0290E0019687709927809379
:105390004A0298CF21E030E00E2E01C0220F0A947D
:1053A000EAF7A52FB0E0A25CBD4F4C9191115CCF04
:1053B000942F92235BCF1F93CF93DF93EC01162F93
:1053C0008F8184FF03C098859093690580FF0CC08E
:1053D000888180FF24C090916A05916090936A054E
:1053E000612F86950E94811E8F8181FF06C0212F2B
:1053F0004B816A8189810E94AB148F8182FF05C035
:105400008E81882379F00E945A1E8F8183FF03C00A
:1054100081E080936305DF91CF911F9108950E94F1
:105420006B14E2CF0E946212F0CFCDB7DEB72F9798
:105430000FB6F894DEBF0FBECDBF84B7877F84BFA1
:105440000FB6F894A8958091600088618093600001
:10545000109260000FBE80E890E00FB6F894809341
:105460006100909361000FBE85B7806885BF85B7E6
:10547000806885BF81E092E19093970180939601C7
:105480000E947A100E94F3108091E2008460809361
:10549000E200789480917F05882399F08091E9005B
:1054A0001091EC001795112717958F70182B1092FB
:1054B000E9008091E80083FD0E94811A1F7010931B
:1054C000E90082E084BD93E095BD9AEF97BD80939B
:1054D0006E001092000210920102109202021092CD
:1054E00003020E94541180930001809100018823DF
:1054F00009F4F4C180E08093150183E280931601E2
:105500000E94541181110E94083380910001809102
:10551000000195E0811190E09093900585E0891B52
:105520008093840586E60E944D0C87E90E944D0C0D
:1055300086EC0E944D0C84E30E944D0C85E30E9492
:105540004D0C86EF0E944D0C87EF0E944D0C81E3BD
:105550000E944D0C83E30E944D0C82E30E944D0C8F
:1055600086E30E944D0C8AE0E1E9F5E0DF01282F97
:105570001D922A95E9F7E6E8F5E0DF011D928A958C
:10558000E9F790E080E00E94C3368A3E9E4F11F01A
:105590000E94AC1582E090E00E94B53680936F05C2
:1055A0000E94171690939C0580939B0583E090E0E2
:1055B0000E94B536282F30E050E040E0CA01B90122
:1055C0000E943C1D8091360290913702A0913802D2
:1055D000B09139028C879D87AE87BF87BC01CD0112
:1055E0000E94341F0E945411811102C00E940E3388
:1055F0000E945411882309F473C193E080E29093D0
:10560000DD01809385020E94A1336DE070E089E99D
:1056100098E00E942516892B09F465C18DE798E072
:105620000E946D098091B5018111EAC080916F05DA
:1056300080FF14C088EE99E09F938F930E94060A22
:1056400080916F050F900F9080FF08C082ED99E068
:105650009F938F930E94060A0F900F9090E080E036
:105660000E94C3368A3E9E4F81F080916F0580FF75
:1056700008C08AEA99E09F938F930E94060A0F90D0
:105680000F900E94AC150E94371388E090E00E94B2
:10569000BD3660936A0570936B0580936C0590939B
:1056A0006D05809168058360809368056E7FD1F4F5
:1056B00080916F0580FF08C081E699E09F938F93EA
:1056C0000E94060A0F900F900E94371388E090E026
:1056D0000E94BD3660936A0570936B0580936C05DC
:1056E00090936D050E940B0E80916F0580FF76C030
:1056F00088E499E09F938F930E94060A80916F053A
:105700000F900F9080FF6AC080916A0581701F9290
:105710008F938BE299E09F938F930E94060A80916A
:105720006F050F900F900F900F9080FF57C08091E2
:105730006A0586951F928F9380E199E09F938F93DE
:105740000E94060A80916F050F900F900F900F90A6
:1057500080FF44C080916B051F928F9386EF98E085
:105760009F938F930E94060A80916F050F900F9070
:105770000F900F9080FF32C080916C051F928F9325
:105780008CED98E09F938F930E94060A80916F059D
:105790000F900F900F900F9080FF20C080916D05AB
:1057A0001F928F9382EC98E09F938F930E94060A3A
:1057B00080916F050F900F900F900F9080FF0EC09B
:1057C00080916E051F928F9386EA98E09F938F9346
:1057D0000E94060A0F900F900F900F90109267058D
:1057E0008091680584608093680580916A0580FFD8
:1057F00004C060E086950E94811E81E08093B5011F
:1058000080910001811106C084EF8093020185EF31
:105810008093010140910201A42FA295AF70B0E0E6
:1058200091963C9191974F7081E090E0BC01042EDD
:1058300001C0660F0A94EAF7262F2095232391963C
:105840002C93919792962C919297262B92962C932B
:10585000929730910101E32FE295EF70F0E021A1E2
:105860003F70032E01C0880F0A94EAF7982F909595
:10587000922391A392A1892B82A390962C9180A12F
:1058800090E002C0959587953A95E2F78170880F70
:1058900030E002C0359527954A95E2F72170822BBA
:1058A0008093BC019091000181E0982790938B0434
:1058B000891B809388048FEF99E090938D048093E7
:1058C0008C0461E08AE00E94811E8AE091E090935E
:1058D00071058093700582EA9BE0F6C283E20BCEED
:1058E00090E080E88CCE8091DD0163E070E081FD86
:1058F00009C08AE798E00E942516892B61F084E5AB
:1059000098E08ECE81E598E00E942516892B19F04B
:1059100089E398E085CE6DE070E08CE298E00E942B
:105920002516892B19F085E198E07ACE0E949C0F0C
:105930006C877D878E879F87DC01CB01805A9541DC
:10594000AF4FBF4F8093E1019093E201A093E30139
:10595000B093E401E6E8F2E080E092E0DF019C0130
:105960001D9221503040E1F7F0938704E0938604C4
:105970008FEF9FEF9093E0018093DF0181E08093B0
:10598000E8018093E5011092DE014CCE80917F0505
:10599000843009F433C00E9462128091B7018111F2
:1059A00009C0F092B70180916A0581708093B601B9
:1059B0000E946B141092080248E150E080E40FB698
:1059C000F894A895409360000FBE8093600083B761
:1059D000817F846083BF83B7816083BF789488951B
:1059E00083B78E7F83BF0FB6F894A895809160002F
:1059F000886180936000109260000FBE8091F40176
:105A0000882309F46FC20E94B317E6E8F5E081919C
:105A100081116AC4A0E9B5E0AE17BF07C1F762C241
:105A200080916F0581FDBEC22324E12CFF24F394F5
:105A3000822D8F2109F4E8C20E945411882399F025
:105A4000E9824A823F2081E009F480E08B830E9452
:105A5000A7178160782F9D838C8349815A816B8140
:105A6000892F0E940F29F801E651FE4F80818F2572
:105A7000808380916705882309F47CC08091660546
:105A8000E0916A05E695E81BE093620500ED17E0FA
:105A9000A1E2EA2EAEE0FA2E823051F4F0E0E957AE
:105AA000F54FE4910E2F10E0B0E8EB2EB5E1FB2EA0
:105AB00080916305882361F0109263050E94511E56
:105AC00090936105809360051092650510926405BE
:105AD0000E94511E9C018091600590916105A90171
